{
  "_format": "hh-sol-artifact-1",
  "contractName": "Exchange",
  "sourceName": "contracts/Exchange.sol",
  "abi": [
    {
      "inputs": [
        {
          "internalType": "address",
          "name": "token",
          "type": "address"
        }
      ],
      "stateMutability": "nonpayable",
      "type": "constructor"
    },
    {
      "anonymous": false,
      "inputs": [
        {
          "indexed": true,
          "internalType": "address",
          "name": "owner",
          "type": "address"
        },
        {
          "indexed": true,
          "internalType": "address",
          "name": "spender",
          "type": "address"
        },
        {
          "indexed": false,
          "internalType": "uint256",
          "name": "value",
          "type": "uint256"
        }
      ],
      "name": "Approval",
      "type": "event"
    },
    {
      "anonymous": false,
      "inputs": [
        {
          "indexed": true,
          "internalType": "address",
          "name": "from",
          "type": "address"
        },
        {
          "indexed": true,
          "internalType": "address",
          "name": "to",
          "type": "address"
        },
        {
          "indexed": false,
          "internalType": "uint256",
          "name": "value",
          "type": "uint256"
        }
      ],
      "name": "Transfer",
      "type": "event"
    },
    {
      "inputs": [
        {
          "internalType": "uint256",
          "name": "tokenAmount",
          "type": "uint256"
        }
      ],
      "name": "addLiquidity",
      "outputs": [
        {
          "internalType": "uint256",
          "name": "",
          "type": "uint256"
        }
      ],
      "stateMutability": "payable",
      "type": "function"
    },
    {
      "inputs": [
        {
          "internalType": "address",
          "name": "owner",
          "type": "address"
        },
        {
          "internalType": "address",
          "name": "spender",
          "type": "address"
        }
      ],
      "name": "allowance",
      "outputs": [
        {
          "internalType": "uint256",
          "name": "",
          "type": "uint256"
        }
      ],
      "stateMutability": "view",
      "type": "function"
    },
    {
      "inputs": [
        {
          "internalType": "address",
          "name": "spender",
          "type": "address"
        },
        {
          "internalType": "uint256",
          "name": "amount",
          "type": "uint256"
        }
      ],
      "name": "approve",
      "outputs": [
        {
          "internalType": "bool",
          "name": "",
          "type": "bool"
        }
      ],
      "stateMutability": "nonpayable",
      "type": "function"
    },
    {
      "inputs": [
        {
          "internalType": "address",
          "name": "account",
          "type": "address"
        }
      ],
      "name": "balanceOf",
      "outputs": [
        {
          "internalType": "uint256",
          "name": "",
          "type": "uint256"
        }
      ],
      "stateMutability": "view",
      "type": "function"
    },
    {
      "inputs": [],
      "name": "decimals",
      "outputs": [
        {
          "internalType": "uint8",
          "name": "",
          "type": "uint8"
        }
      ],
      "stateMutability": "view",
      "type": "function"
    },
    {
      "inputs": [
        {
          "internalType": "address",
          "name": "spender",
          "type": "address"
        },
        {
          "internalType": "uint256",
          "name": "subtractedValue",
          "type": "uint256"
        }
      ],
      "name": "decreaseAllowance",
      "outputs": [
        {
          "internalType": "bool",
          "name": "",
          "type": "bool"
        }
      ],
      "stateMutability": "nonpayable",
      "type": "function"
    },
    {
      "inputs": [
        {
          "internalType": "uint256",
          "name": "minTokensToReceive",
          "type": "uint256"
        }
      ],
      "name": "ethToTokenSwap",
      "outputs": [],
      "stateMutability": "payable",
      "type": "function"
    },
    {
      "inputs": [
        {
          "internalType": "uint256",
          "name": "inputAmount",
          "type": "uint256"
        },
        {
          "internalType": "uint256",
          "name": "inputReserve",
          "type": "uint256"
        },
        {
          "internalType": "uint256",
          "name": "outputReserve",
          "type": "uint256"
        }
      ],
      "name": "getOutputAmountFromSwap",
      "outputs": [
        {
          "internalType": "uint256",
          "name": "",
          "type": "uint256"
        }
      ],
      "stateMutability": "pure",
      "type": "function"
    },
    {
      "inputs": [],
      "name": "getReserve",
      "outputs": [
        {
          "internalType": "uint256",
          "name": "",
          "type": "uint256"
        }
      ],
      "stateMutability": "view",
      "type": "function"
    },
    {
      "inputs": [
        {
          "internalType": "address",
          "name": "spender",
          "type": "address"
        },
        {
          "internalType": "uint256",
          "name": "addedValue",
          "type": "uint256"
        }
      ],
      "name": "increaseAllowance",
      "outputs": [
        {
          "internalType": "bool",
          "name": "",
          "type": "bool"
        }
      ],
      "stateMutability": "nonpayable",
      "type": "function"
    },
    {
      "inputs": [],
      "name": "name",
      "outputs": [
        {
          "internalType": "string",
          "name": "",
          "type": "string"
        }
      ],
      "stateMutability": "view",
      "type": "function"
    },
    {
      "inputs": [
        {
          "internalType": "uint256",
          "name": "lpTokenAmount",
          "type": "uint256"
        }
      ],
      "name": "removeLiquidity",
      "outputs": [
        {
          "internalType": "uint256",
          "name": "",
          "type": "uint256"
        },
        {
          "internalType": "uint256",
          "name": "",
          "type": "uint256"
        }
      ],
      "stateMutability": "nonpayable",
      "type": "function"
    },
    {
      "inputs": [],
      "name": "symbol",
      "outputs": [
        {
          "internalType": "string",
          "name": "",
          "type": "string"
        }
      ],
      "stateMutability": "view",
      "type": "function"
    },
    {
      "inputs": [],
      "name": "tokenAddress",
      "outputs": [
        {
          "internalType": "address",
          "name": "",
          "type": "address"
        }
      ],
      "stateMutability": "view",
      "type": "function"
    },
    {
      "inputs": [
        {
          "internalType": "uint256",
          "name": "tokensToSwap",
          "type": "uint256"
        },
        {
          "internalType": "uint256",
          "name": "minEthToReceive",
          "type": "uint256"
        }
      ],
      "name": "tokenToEthSwap",
      "outputs": [],
      "stateMutability": "nonpayable",
      "type": "function"
    },
    {
      "inputs": [],
      "name": "totalSupply",
      "outputs": [
        {
          "internalType": "uint256",
          "name": "",
          "type": "uint256"
        }
      ],
      "stateMutability": "view",
      "type": "function"
    },
    {
      "inputs": [
        {
          "internalType": "address",
          "name": "to",
          "type": "address"
        },
        {
          "internalType": "uint256",
          "name": "amount",
          "type": "uint256"
        }
      ],
      "name": "transfer",
      "outputs": [
        {
          "internalType": "bool",
          "name": "",
          "type": "bool"
        }
      ],
      "stateMutability": "nonpayable",
      "type": "function"
    },
    {
      "inputs": [
        {
          "internalType": "address",
          "name": "from",
          "type": "address"
        },
        {
          "internalType": "address",
          "name": "to",
          "type": "address"
        },
        {
          "internalType": "uint256",
          "name": "amount",
          "type": "uint256"
        }
      ],
      "name": "transferFrom",
      "outputs": [
        {
          "internalType": "bool",
          "name": "",
          "type": "bool"
        }
      ],
      "stateMutability": "nonpayable",
      "type": "function"
    }
  ],
  "bytecode": "0x60806040523480156200001157600080fd5b5060405162002c5938038062002c598339818101604052810190620000379190620001ed565b6040518060400160405280601281526020017f45544820544f4b454e204c5020546f6b656e00000000000000000000000000008152506040518060400160405280600a81526020017f6c70455448544f4b454e000000000000000000000000000000000000000000008152508160039081620000b4919062000499565b508060049081620000c6919062000499565b505050600073ffffffffffffffffffffffffffffffffffffffff168173ffffffffffffffffffffffffffffffffffffffff16036200013b576040517f08c379a0000000000000000000000000000000000000000000000000000000008152600401620001329062000607565b60405180910390fd5b80600560006101000a81548173ffffffffffffffffffffffffffffffffffffffff021916908373ffffffffffffffffffffffffffffffffffffffff1602179055505062000629565b600080fd5b600073ffffffffffffffffffffffffffffffffffffffff82169050919050565b6000620001b58262000188565b9050919050565b620001c781620001a8565b8114620001d357600080fd5b50565b600081519050620001e781620001bc565b92915050565b60006020828403121562000206576200020562000183565b5b60006200021684828501620001d6565b91505092915050565b600081519050919050565b7f4e487b7100000000000000000000000000000000000000000000000000000000600052604160045260246000fd5b7f4e487b7100000000000000000000000000000000000000000000000000000000600052602260045260246000fd5b60006002820490506001821680620002a157607f821691505b602082108103620002b757620002b662000259565b5b50919050565b60008190508160005260206000209050919050565b60006020601f8301049050919050565b600082821b905092915050565b600060088302620003217fffffffffffffffffffffffffffffffffffffffffffffffffffffffffffffffff82620002e2565b6200032d8683620002e2565b95508019841693508086168417925050509392505050565b6000819050919050565b6000819050919050565b60006200037a620003746200036e8462000345565b6200034f565b62000345565b9050919050565b6000819050919050565b620003968362000359565b620003ae620003a58262000381565b848454620002ef565b825550505050565b600090565b620003c5620003b6565b620003d28184846200038b565b505050565b5b81811015620003fa57620003ee600082620003bb565b600181019050620003d8565b5050565b601f82111562000449576200041381620002bd565b6200041e84620002d2565b810160208510156200042e578190505b620004466200043d85620002d2565b830182620003d7565b50505b505050565b600082821c905092915050565b60006200046e600019846008026200044e565b1980831691505092915050565b60006200048983836200045b565b9150826002028217905092915050565b620004a4826200021f565b67ffffffffffffffff811115620004c057620004bf6200022a565b5b620004cc825462000288565b620004d9828285620003fe565b600060209050601f831160018114620005115760008415620004fc578287015190505b6200050885826200047b565b86555062000578565b601f1984166200052186620002bd565b60005b828110156200054b5784890151825560018201915060208501945060208101905062000524565b868310156200056b578489015162000567601f8916826200045b565b8355505b6001600288020188555050505b505050505050565b600082825260208201905092915050565b7f546f6b656e206164647265737320706173736564206973206e756c6c2061646460008201527f7265737300000000000000000000000000000000000000000000000000000000602082015250565b6000620005ef60248362000580565b9150620005fc8262000591565b604082019050919050565b600060208201905081810360008301526200062281620005e0565b9050919050565b61262080620006396000396000f3fe6080604052600436106101095760003560e01c806395d89b4111610095578063a9059cbb11610064578063a9059cbb146103af578063acb3159e146103ec578063dd62ed3e14610429578063e0486c8a14610466578063f979dcd71461048f57610109565b806395d89b41146102de5780639c8f9f23146103095780639d76ea5814610347578063a457c2d71461037257610109565b8063313ce567116100dc578063313ce567146101de578063395093511461020957806351c6590a1461024657806359bf5d391461027657806370a08231146102a157610109565b806306fdde031461010e578063095ea7b31461013957806318160ddd1461017657806323b872dd146101a1575b600080fd5b34801561011a57600080fd5b506101236104ab565b60405161013091906117d5565b60405180910390f35b34801561014557600080fd5b50610160600480360381019061015b9190611890565b61053d565b60405161016d91906118eb565b60405180910390f35b34801561018257600080fd5b5061018b610560565b6040516101989190611915565b60405180910390f35b3480156101ad57600080fd5b506101c860048036038101906101c39190611930565b61056a565b6040516101d591906118eb565b60405180910390f35b3480156101ea57600080fd5b506101f3610599565b604051610200919061199f565b60405180910390f35b34801561021557600080fd5b50610230600480360381019061022b9190611890565b6105a2565b60405161023d91906118eb565b60405180910390f35b610260600480360381019061025b91906119ba565b6105d9565b60405161026d9190611915565b60405180910390f35b34801561028257600080fd5b5061028b6107de565b6040516102989190611915565b60405180910390f35b3480156102ad57600080fd5b506102c860048036038101906102c391906119e7565b610881565b6040516102d59190611915565b60405180910390f35b3480156102ea57600080fd5b506102f36108c9565b60405161030091906117d5565b60405180910390f35b34801561031557600080fd5b50610330600480360381019061032b91906119ba565b61095b565b60405161033e929190611a14565b60405180910390f35b34801561035357600080fd5b5061035c610af0565b6040516103699190611a4c565b60405180910390f35b34801561037e57600080fd5b5061039960048036038101906103949190611890565b610b16565b6040516103a691906118eb565b60405180910390f35b3480156103bb57600080fd5b506103d660048036038101906103d19190611890565b610b8d565b6040516103e391906118eb565b60405180910390f35b3480156103f857600080fd5b50610413600480360381019061040e9190611a67565b610bb0565b6040516104209190611915565b60405180910390f35b34801561043557600080fd5b50610450600480360381019061044b9190611aba565b610c55565b60405161045d9190611915565b60405180910390f35b34801561047257600080fd5b5061048d60048036038101906104889190611afa565b610cdc565b005b6104a960048036038101906104a491906119ba565b610e30565b005b6060600380546104ba90611b69565b80601f01602080910402602001604051908101604052809291908181526020018280546104e690611b69565b80156105335780601f1061050857610100808354040283529160200191610533565b820191906000526020600020905b81548152906001019060200180831161051657829003601f168201915b5050505050905090565b600080610548610f45565b9050610555818585610f4d565b600191505092915050565b6000600254905090565b600080610575610f45565b9050610582858285611116565b61058d8585856111a2565b60019150509392505050565b60006012905090565b6000806105ad610f45565b90506105ce8185856105bf8589610c55565b6105c99190611bc9565b610f4d565b600191505092915050565b600080600047905060006105eb6107de565b90506000600560009054906101000a900473ffffffffffffffffffffffffffffffffffffffff169050600082036106b6578073ffffffffffffffffffffffffffffffffffffffff166323b872dd3330896040518463ffffffff1660e01b815260040161065993929190611bfd565b6020604051808303816000875af1158015610678573d6000803e3d6000fd5b505050506040513d601f19601f8201168201806040525081019061069c9190611c60565b508293506106aa3385611418565b839450505050506107d9565b600034846106c49190611c8d565b905060008184346106d59190611cc1565b6106df9190611d32565b905080881015610724576040517f08c379a000000000000000000000000000000000000000000000000000000000815260040161071b90611dd5565b60405180910390fd5b8273ffffffffffffffffffffffffffffffffffffffff166323b872dd3330846040518463ffffffff1660e01b815260040161076193929190611bfd565b6020604051808303816000875af1158015610780573d6000803e3d6000fd5b505050506040513d601f19601f820116820180604052508101906107a49190611c60565b5081346107af610560565b6107b99190611cc1565b6107c39190611d32565b95506107cf3387611418565b8596505050505050505b919050565b6000600560009054906101000a900473ffffffffffffffffffffffffffffffffffffffff1673ffffffffffffffffffffffffffffffffffffffff166370a08231306040518263ffffffff1660e01b815260040161083b9190611a4c565b602060405180830381865afa158015610858573d6000803e3d6000fd5b505050506040513d601f19601f8201168201806040525081019061087c9190611e0a565b905090565b60008060008373ffffffffffffffffffffffffffffffffffffffff1673ffffffffffffffffffffffffffffffffffffffff168152602001908152602001600020549050919050565b6060600480546108d890611b69565b80601f016020809104026020016040519081016040528092919081815260200182805461090490611b69565b80156109515780601f1061092657610100808354040283529160200191610951565b820191906000526020600020905b81548152906001019060200180831161093457829003601f168201915b5050505050905090565b600080600083116109a1576040517f08c379a000000000000000000000000000000000000000000000000000000000815260040161099890611ea9565b60405180910390fd5b600047905060006109b0610560565b905060008183876109c19190611cc1565b6109cb9190611d32565b90506000826109d86107de565b886109e39190611cc1565b6109ed9190611d32565b90506109f9338861156e565b3373ffffffffffffffffffffffffffffffffffffffff166108fc839081150290604051600060405180830381858888f19350505050158015610a3f573d6000803e3d6000fd5b50600560009054906101000a900473ffffffffffffffffffffffffffffffffffffffff1673ffffffffffffffffffffffffffffffffffffffff1663a9059cbb33836040518363ffffffff1660e01b8152600401610a9d929190611ec9565b6020604051808303816000875af1158015610abc573d6000803e3d6000fd5b505050506040513d601f19601f82011682018060405250810190610ae09190611c60565b5081819550955050505050915091565b600560009054906101000a900473ffffffffffffffffffffffffffffffffffffffff1681565b600080610b21610f45565b90506000610b2f8286610c55565b905083811015610b74576040517f08c379a0000000000000000000000000000000000000000000000000000000008152600401610b6b90611f64565b60405180910390fd5b610b818286868403610f4d565b60019250505092915050565b600080610b98610f45565b9050610ba58185856111a2565b600191505092915050565b60008083118015610bc15750600082115b610c00576040517f08c379a0000000000000000000000000000000000000000000000000000000008152600401610bf790611fd0565b60405180910390fd5b6000606385610c0f9190611cc1565b905060008382610c1f9190611cc1565b9050600082606487610c319190611cc1565b610c3b9190611bc9565b90508082610c499190611d32565b93505050509392505050565b6000600160008473ffffffffffffffffffffffffffffffffffffffff1673ffffffffffffffffffffffffffffffffffffffff16815260200190815260200160002060008373ffffffffffffffffffffffffffffffffffffffff1673ffffffffffffffffffffffffffffffffffffffff16815260200190815260200160002054905092915050565b6000610ce66107de565b905060004790506000610cfa858484610bb0565b905083811015610d3f576040517f08c379a0000000000000000000000000000000000000000000000000000000008152600401610d3690612062565b60405180910390fd5b600560009054906101000a900473ffffffffffffffffffffffffffffffffffffffff1673ffffffffffffffffffffffffffffffffffffffff166323b872dd3330886040518463ffffffff1660e01b8152600401610d9e93929190611bfd565b6020604051808303816000875af1158015610dbd573d6000803e3d6000fd5b505050506040513d601f19601f82011682018060405250810190610de19190611c60565b503373ffffffffffffffffffffffffffffffffffffffff166108fc829081150290604051600060405180830381858888f19350505050158015610e28573d6000803e3d6000fd5b505050505050565b6000610e3a6107de565b905060003447610e4a9190611c8d565b90506000610e59348385610bb0565b905083811015610e9e576040517f08c379a0000000000000000000000000000000000000000000000000000000008152600401610e95906120f4565b60405180910390fd5b600560009054906101000a900473ffffffffffffffffffffffffffffffffffffffff1673ffffffffffffffffffffffffffffffffffffffff1663a9059cbb33836040518363ffffffff1660e01b8152600401610efb929190611ec9565b6020604051808303816000875af1158015610f1a573d6000803e3d6000fd5b505050506040513d601f19601f82011682018060405250810190610f3e9190611c60565b5050505050565b600033905090565b600073ffffffffffffffffffffffffffffffffffffffff168373ffffffffffffffffffffffffffffffffffffffff1603610fbc576040517f08c379a0000000000000000000000000000000000000000000000000000000008152600401610fb390612186565b60405180910390fd5b600073ffffffffffffffffffffffffffffffffffffffff168273ffffffffffffffffffffffffffffffffffffffff160361102b576040517f08c379a000000000000000000000000000000000000000000000000000000000815260040161102290612218565b60405180910390fd5b80600160008573ffffffffffffffffffffffffffffffffffffffff1673ffffffffffffffffffffffffffffffffffffffff16815260200190815260200160002060008473ffffffffffffffffffffffffffffffffffffffff1673ffffffffffffffffffffffffffffffffffffffff168152602001908152602001600020819055508173ffffffffffffffffffffffffffffffffffffffff168373ffffffffffffffffffffffffffffffffffffffff167f8c5be1e5ebec7d5bd14f71427d1e84f3dd0314c0f7b2291e5b200ac8c7c3b925836040516111099190611915565b60405180910390a3505050565b60006111228484610c55565b90507fffffffffffffffffffffffffffffffffffffffffffffffffffffffffffffffff811461119c578181101561118e576040517f08c379a000000000000000000000000000000000000000000000000000000000815260040161118590612284565b60405180910390fd5b61119b8484848403610f4d565b5b50505050565b600073ffffffffffffffffffffffffffffffffffffffff168373ffffffffffffffffffffffffffffffffffffffff1603611211576040517f08c379a000000000000000000000000000000000000000000000000000000000815260040161120890612316565b60405180910390fd5b600073ffffffffffffffffffffffffffffffffffffffff168273ffffffffffffffffffffffffffffffffffffffff1603611280576040517f08c379a0000000000000000000000000000000000000000000000000000000008152600401611277906123a8565b60405180910390fd5b61128b83838361173b565b60008060008573ffffffffffffffffffffffffffffffffffffffff1673ffffffffffffffffffffffffffffffffffffffff16815260200190815260200160002054905081811015611311576040517f08c379a00000000000000000000000000000000000000000000000000000000081526004016113089061243a565b60405180910390fd5b8181036000808673ffffffffffffffffffffffffffffffffffffffff1673ffffffffffffffffffffffffffffffffffffffff16815260200190815260200160002081905550816000808573ffffffffffffffffffffffffffffffffffffffff1673ffffffffffffffffffffffffffffffffffffffff168152602001908152602001600020600082825401925050819055508273ffffffffffffffffffffffffffffffffffffffff168473ffffffffffffffffffffffffffffffffffffffff167fddf252ad1be2c89b69c2b068fc378daa952ba7f163c4a11628f55a4df523b3ef846040516113ff9190611915565b60405180910390a3611412848484611740565b50505050565b600073ffffffffffffffffffffffffffffffffffffffff168273ffffffffffffffffffffffffffffffffffffffff1603611487576040517f08c379a000000000000000000000000000000000000000000000000000000000815260040161147e906124a6565b60405180910390fd5b6114936000838361173b565b80600260008282546114a59190611bc9565b92505081905550806000808473ffffffffffffffffffffffffffffffffffffffff1673ffffffffffffffffffffffffffffffffffffffff168152602001908152602001600020600082825401925050819055508173ffffffffffffffffffffffffffffffffffffffff16600073ffffffffffffffffffffffffffffffffffffffff167fddf252ad1be2c89b69c2b068fc378daa952ba7f163c4a11628f55a4df523b3ef836040516115569190611915565b60405180910390a361156a60008383611740565b5050565b600073ffffffffffffffffffffffffffffffffffffffff168273ffffffffffffffffffffffffffffffffffffffff16036115dd576040517f08c379a00000000000000000000000000000000000000000000000000000000081526004016115d490612538565b60405180910390fd5b6115e98260008361173b565b60008060008473ffffffffffffffffffffffffffffffffffffffff1673ffffffffffffffffffffffffffffffffffffffff1681526020019081526020016000205490508181101561166f576040517f08c379a0000000000000000000000000000000000000000000000000000000008152600401611666906125ca565b60405180910390fd5b8181036000808573ffffffffffffffffffffffffffffffffffffffff1673ffffffffffffffffffffffffffffffffffffffff1681526020019081526020016000208190555081600260008282540392505081905550600073ffffffffffffffffffffffffffffffffffffffff168373ffffffffffffffffffffffffffffffffffffffff167fddf252ad1be2c89b69c2b068fc378daa952ba7f163c4a11628f55a4df523b3ef846040516117229190611915565b60405180910390a361173683600084611740565b505050565b505050565b505050565b600081519050919050565b600082825260208201905092915050565b60005b8381101561177f578082015181840152602081019050611764565b60008484015250505050565b6000601f19601f8301169050919050565b60006117a782611745565b6117b18185611750565b93506117c1818560208601611761565b6117ca8161178b565b840191505092915050565b600060208201905081810360008301526117ef818461179c565b905092915050565b600080fd5b600073ffffffffffffffffffffffffffffffffffffffff82169050919050565b6000611827826117fc565b9050919050565b6118378161181c565b811461184257600080fd5b50565b6000813590506118548161182e565b92915050565b6000819050919050565b61186d8161185a565b811461187857600080fd5b50565b60008135905061188a81611864565b92915050565b600080604083850312156118a7576118a66117f7565b5b60006118b585828601611845565b92505060206118c68582860161187b565b9150509250929050565b60008115159050919050565b6118e5816118d0565b82525050565b600060208201905061190060008301846118dc565b92915050565b61190f8161185a565b82525050565b600060208201905061192a6000830184611906565b92915050565b600080600060608486031215611949576119486117f7565b5b600061195786828701611845565b935050602061196886828701611845565b92505060406119798682870161187b565b9150509250925092565b600060ff82169050919050565b61199981611983565b82525050565b60006020820190506119b46000830184611990565b92915050565b6000602082840312156119d0576119cf6117f7565b5b60006119de8482850161187b565b91505092915050565b6000602082840312156119fd576119fc6117f7565b5b6000611a0b84828501611845565b91505092915050565b6000604082019050611a296000830185611906565b611a366020830184611906565b9392505050565b611a468161181c565b82525050565b6000602082019050611a616000830184611a3d565b92915050565b600080600060608486031215611a8057611a7f6117f7565b5b6000611a8e8682870161187b565b9350506020611a9f8682870161187b565b9250506040611ab08682870161187b565b9150509250925092565b60008060408385031215611ad157611ad06117f7565b5b6000611adf85828601611845565b9250506020611af085828601611845565b9150509250929050565b60008060408385031215611b1157611b106117f7565b5b6000611b1f8582860161187b565b9250506020611b308582860161187b565b9150509250929050565b7f4e487b7100000000000000000000000000000000000000000000000000000000600052602260045260246000fd5b60006002820490506001821680611b8157607f821691505b602082108103611b9457611b93611b3a565b5b50919050565b7f4e487b7100000000000000000000000000000000000000000000000000000000600052601160045260246000fd5b6000611bd48261185a565b9150611bdf8361185a565b9250828201905080821115611bf757611bf6611b9a565b5b92915050565b6000606082019050611c126000830186611a3d565b611c1f6020830185611a3d565b611c2c6040830184611906565b949350505050565b611c3d816118d0565b8114611c4857600080fd5b50565b600081519050611c5a81611c34565b92915050565b600060208284031215611c7657611c756117f7565b5b6000611c8484828501611c4b565b91505092915050565b6000611c988261185a565b9150611ca38361185a565b9250828203905081811115611cbb57611cba611b9a565b5b92915050565b6000611ccc8261185a565b9150611cd78361185a565b9250828202611ce58161185a565b91508282048414831517611cfc57611cfb611b9a565b5b5092915050565b7f4e487b7100000000000000000000000000000000000000000000000000000000600052601260045260246000fd5b6000611d3d8261185a565b9150611d488361185a565b925082611d5857611d57611d03565b5b828204905092915050565b7f496e63756669636369656e7420616d6f756e74206f6620746f6b656e7320707260008201527f6f76696465640000000000000000000000000000000000000000000000000000602082015250565b6000611dbf602683611750565b9150611dca82611d63565b604082019050919050565b60006020820190508181036000830152611dee81611db2565b9050919050565b600081519050611e0481611864565b92915050565b600060208284031215611e2057611e1f6117f7565b5b6000611e2e84828501611df5565b91505092915050565b7f54686520616d6f756e74206f66206c70546f6b656e73206d757374206265206760008201527f726561746572207468656e203000000000000000000000000000000000000000602082015250565b6000611e93602d83611750565b9150611e9e82611e37565b604082019050919050565b60006020820190508181036000830152611ec281611e86565b9050919050565b6000604082019050611ede6000830185611a3d565b611eeb6020830184611906565b9392505050565b7f45524332303a2064656372656173656420616c6c6f77616e63652062656c6f7760008201527f207a65726f000000000000000000000000000000000000000000000000000000602082015250565b6000611f4e602583611750565b9150611f5982611ef2565b604082019050919050565b60006020820190508181036000830152611f7d81611f41565b9050919050565b7f5265736572766573206d7573742062652067726561746572207468656e203000600082015250565b6000611fba601f83611750565b9150611fc582611f84565b602082019050919050565b60006020820190508181036000830152611fe981611fad565b9050919050565b7f455448207265636569766564206973206c657373207468616e206d696e696d7560008201527f6d20455448206578706563746564000000000000000000000000000000000000602082015250565b600061204c602e83611750565b915061205782611ff0565b604082019050919050565b6000602082019050818103600083015261207b8161203f565b9050919050565b7f546f6b656e7320726563656976656420617265206c657373207468616e206d6960008201527f6e696d756d20746f6b656e732065787065637465640000000000000000000000602082015250565b60006120de603583611750565b91506120e982612082565b604082019050919050565b6000602082019050818103600083015261210d816120d1565b9050919050565b7f45524332303a20617070726f76652066726f6d20746865207a65726f2061646460008201527f7265737300000000000000000000000000000000000000000000000000000000602082015250565b6000612170602483611750565b915061217b82612114565b604082019050919050565b6000602082019050818103600083015261219f81612163565b9050919050565b7f45524332303a20617070726f766520746f20746865207a65726f20616464726560008201527f7373000000000000000000000000000000000000000000000000000000000000602082015250565b6000612202602283611750565b915061220d826121a6565b604082019050919050565b60006020820190508181036000830152612231816121f5565b9050919050565b7f45524332303a20696e73756666696369656e7420616c6c6f77616e6365000000600082015250565b600061226e601d83611750565b915061227982612238565b602082019050919050565b6000602082019050818103600083015261229d81612261565b9050919050565b7f45524332303a207472616e736665722066726f6d20746865207a65726f20616460008201527f6472657373000000000000000000000000000000000000000000000000000000602082015250565b6000612300602583611750565b915061230b826122a4565b604082019050919050565b6000602082019050818103600083015261232f816122f3565b9050919050565b7f45524332303a207472616e7366657220746f20746865207a65726f206164647260008201527f6573730000000000000000000000000000000000000000000000000000000000602082015250565b6000612392602383611750565b915061239d82612336565b604082019050919050565b600060208201905081810360008301526123c181612385565b9050919050565b7f45524332303a207472616e7366657220616d6f756e742065786365656473206260008201527f616c616e63650000000000000000000000000000000000000000000000000000602082015250565b6000612424602683611750565b915061242f826123c8565b604082019050919050565b6000602082019050818103600083015261245381612417565b9050919050565b7f45524332303a206d696e7420746f20746865207a65726f206164647265737300600082015250565b6000612490601f83611750565b915061249b8261245a565b602082019050919050565b600060208201905081810360008301526124bf81612483565b9050919050565b7f45524332303a206275726e2066726f6d20746865207a65726f2061646472657360008201527f7300000000000000000000000000000000000000000000000000000000000000602082015250565b6000612522602183611750565b915061252d826124c6565b604082019050919050565b6000602082019050818103600083015261255181612515565b9050919050565b7f45524332303a206275726e20616d6f756e7420657863656564732062616c616e60008201527f6365000000000000000000000000000000000000000000000000000000000000602082015250565b60006125b4602283611750565b91506125bf82612558565b604082019050919050565b600060208201905081810360008301526125e3816125a7565b905091905056fea264697066735822122075410d4cf366bba981b7b2d27c1603ab45516f78d3bcf174f757f8524638964964736f6c63430008120033",
  "linkReferences": {},
  "deployedLinkReferences": {}
}